:100000000C942A000C9447000C9447000C94470071
:100010000C9447000C9447000C9447000C94470044
:100020000C9447000C9447000C9447000C94470034
:100030000C9447000C9447000C9447000C94470024
:100040000C9447000C9447000C9447000C94470014
:100050000C94470011241FBECFE5D8E0DEBFCDBF12
:1000600010E0A0E6B0E0E8EAFDE002C005900D92E5
:10007000A639B107D9F720E0A6E9B0E001C01D928A
:10008000A83AB207E1F70E9482020C94D2060C94BF
:1000900000006115E9F0AC9AAD9825B3982F9295C0
:1000A0009F70207F922B95BBAE98AE9AAE98E4E8F5
:1000B000F3E03197F1F795B3907F8F70892B85BB73
:1000C000AE98AE9AAE9884E893E00197F1F7089560
:1000D000AC98E2CF60E00C94490061E00C944900D8
:1000E00095B3907F8F70982B95BBAE98AE9AAE98D3
:1000F00084E893E00197F1F7089584B38F6784BB98
:1001000087EC9FEA0197F1F700C0000085B38F7874
:1001100085BB8BE090E30197F1F700C0000085B349
:10012000807F836085BBAE98AE9AAE9884E893E0FA
:100130000197F1F78BE090E30197F1F700C0000021
:1001400085B3807F836085BBAE98AE9AAE9884E815
:1001500093E00197F1F78BE090E30197F1F700C08E
:10016000000085B3807F836085BBAE98AE9AAE9861
:1001700084E893E00197F1F78BE090E30197F1F7C2
:1001800000C0000085B3807F826085BBAE98AE9AC8
:10019000AE9884E893E00197F1F760E088E20E946E
:1001A00049001092A70060E088E00C94490080911B
:1001B000A700982F94609093A70060E08C600C9447
:1001C00049008091A7008B7F8093A70060E0886042
:1001D0000C94490060E081E00E9449008FE697E1BD
:1001E0000197F1F700C00000089560E082E00E94EE
:1001F00049008FE697E10197F1F700C000000895EC
:100200008091A700982F91609093A70060E089608B
:100210000C9449008091A7008E7F8093A70060E036
:1002200088600C9449008091A700982F9260909369
:10023000A70060E08A600C9449008091A7008D7F40
:100240008093A70060E088600C94490060E088E13A
:100250000C94490060E08CE10C9449008091A70067
:10026000982F92609093A70060E086600C944900FC
:100270008091A7008D7F8093A70060E084600C943C
:1002800049008091A700982F91609093A70060E0AB
:1002900085600C9449008091A7008E7F8093A70011
:1002A00060E084600C944900CF93DF93D62FC72F72
:1002B000880F880F880F887360E080640E9449006F
:1002C000ED2FFC2FAF01485F5F4F9191AC9AAD9835
:1002D00025B3892F82958F70207F822B85BBAE98A6
:1002E000AE9AAE98A4E8B3E01197F1F785B3807F9A
:1002F0009F70892B85BBAE98AE9AAE9884E893E048
:100300000197F1F7E417F50701F760E080E8DF9166
:10031000CF910C944900E62FF0E0E059FF4F908117
:10032000890F60E080680C944900FC018081811590
:1003300001F13196AC9AAD9825B3982F92959F70A4
:10034000207F922B95BBAE98AE9AAE98A4E8B3E00E
:100350001197F1F795B3907F8F70892B85BBAE987D
:10036000AE9AAE9884E893E00197F1F781918111FC
:10037000E1CF0895CF93DF93CDB7DEB79E012B5F1A
:100380003F4FD9014D915D919D0161E170E086E99A
:1003900090E00E94DB0380919600811509F1E7E966
:1003A000F0E0AC9AAD9825B3982F92959F70207F7E
:1003B000922B95BBAE98AE9AAE98A4E8B3E0119795
:1003C000F1F795B3907F8F70892B85BBAE98AE9A6D
:1003D000AE9884E893E00197F1F781918111E1CF24
:1003E000DF91CF9108958FEF84BB15BA81BB12BA0C
:1003F00087BB18BA1ABA8BBB08959C0149E050E03C
:10040000481B590B141615060CF588E090E0821B6A
:10041000930B6FEF70E002C0759567958A95E2F7D0
:1004200080E090E09B01082E01C0220F0A94EAF7B9
:1004300022BB2FEF32E5E7E021503040E040E1F70A
:1004400000C0000001968417950761F712BA08955D
:1004500084E090E03FE020EF32BB4FE75FE462E1F1
:10046000415050406040E1F700C0000022BB4FE720
:100470005FE462E1415050406040E1F700C000009D
:1004800012BA4FE75FE462E1415050406040E1F74B
:1004900000C00000019701F70895CF93DF93CDB717
:1004A000DEB760970FB6F894DEBF0FBECDBF80E118
:1004B000E0E6F0E0DE01119601900D928A95E1F7F9
:1004C000CE9916C09E012F5E3F4FFE01319680816E
:1004D000329688BB4FEF8EE994E2415080409040C5
:1004E000E1F700C00000E217F30789F7CE9BEDCFDC
:1004F00018BA60960FB6F894DEBF0FBECDBFDF917D
:10050000CF9108950E94F3010E947D000E94D700C0
:100510008FE0E82E90EFF92EC3E0D0E001E010E08C
:10052000C89958C0AC98AD9885B3807F85BBAE980C
:10053000AE9AAE9884E893E00197F1F785B3807F97
:10054000816085BBAE98AE9AAE98A4E8B3E01197EF
:10055000F1F78FE697E10197F1F700C00000E5E7BA
:10056000F0E082E3AC9AAD9825B3982F92959F70F6
:10057000207F922B95BBAE98AE9AAE98A4E8B3E0DC
:100580001197F1F795B3907F8F70892B85BBAE984B
:10059000AE9AAE9884E893E00197F1F781918111CA
:1005A000E1CF80E090E09801082E01C0220F0A946C
:1005B000EAF722BBAFEFB2E527E0A150B040204000
:1005C000E1F700C0000001968830910561F712BA8A
:1005D000C89BA8CFCA9BABC0CC9B05C0CE9B52C0CA
:1005E00012BA18BA9DCF60E081E00E9449008FE600
:1005F00097E10197F1F700C00000E6E8F0E080E540
:10060000AC9AAD9825B3982F92959F70207F922B2E
:1006100095BBAE98AE9AAE98A4E8B3E01197F1F707
:1006200095B3907F8F70892B85BBAE98AE9AAE98AC
:1006300084E893E00197F1F781918111E1CF84E0A3
:1006400090E0E2BAAFE7BFE422E1A150B040204021
:10065000E1F700C00000F2BA3FE74FE4A2E13150F9
:100660004040A040E1F700C0000012BABFE72FE40D
:1006700032E1B15020403040E1F700C00000019766
:1006800001F74ECF60E081E00E9449008FE697E1DC
:100690000197F1F700C00000E5E7F0E082E3AC9AD3
:1006A000AD9825B3982F92959F70207F922B95BB84
:1006B000AE98AE9AAE98A4E8B3E01197F1F795B36F
:1006C000907F8F70892B85BBAE98AE9AAE9884E8E8
:1006D00093E00197F1F781918111E1CF60E080EC27
:1006E0000E944900E0E8F0E08CE4AC9AAD9825B3B4
:1006F000982F92959F70207F922B95BBAE98AE9AC3
:10070000AE98A4E8B3E01197F1F795B3907F8F709E
:10071000892B85BBAE98AE9AAE9884E893E001979A
:10072000F1F781918111E1CF0E944D02F9CE60E095
:1007300081E00E9449008FE697E10197F1F700C040
:100740000000E0E8F0E08CE4AC9AAD9825B3982F77
:1007500092959F70207F922B95BBAE98AE9AAE98E3
:10076000A4E8B3E01197F1F795B3907F8F70892BD0
:1007700085BBAE98AE9AAE9884E893E00197F1F706
:1007800081918111E1CF80E090E09E01082E01C0AF
:10079000220F0A94EAF722BBAFEFB2E527E0A1509F
:1007A000B0402040E1F700C000000196873091057D
:1007B00061F712BA0DCFAEE0B0E0E1EEF3E00C94D9
:1007C000A9068C01F62FE72FBA01A90186E08C83D8
:1007D0001A8309838F2F9E2F813020E8920710F013
:1007E00080E090E801979E838D83CE0101960E9460
:1007F0000B044D815E8157FD0AC02F813885421759
:1008000053070CF49A01020F131FF80110822E9661
:10081000E4E00C94C506ABE0B0E0E1E1F4E00C9458
:100820009C066C017B018A01FC0117821682838180
:1008300081FFDAC19AE0492EF6012381F70123FDF9
:10084000859123FF81917F01811509F41FC18532B4
:1008500039F423FD959123FF91917F01953229F47D
:10086000B60190E00E940D06E7CF30E0612C512CDC
:10087000712CF0E27F1640F59B32D9F058F490329B
:10088000D1F09332F1F09E3299F576FCFFC0689476
:1008900076F806C09D3291F09033C1F4689470F8F8
:1008A000F70123FD959123FF91917F019111E1CFF4
:1008B00029C0689471F8689472F8F2CF689473F85C
:1008C000EFCF689474F8ECCF77FC1CC080ED890FF3
:1008D0008A30C8F676FE05C0649C800D1124682E0F
:1008E000DFCF549C800D1124582E689475F8D8CF12
:1008F0009C3619F4689477F8D3CF9C3409F44BC034
:10090000983671F2892F8F7D8554833008F445C065
:10091000933609F466C0933709F469C0933509F436
:1009200075C0943619F0993609F09FC0F80177FE2A
:1009300095C061917191819191918F01272D2F76B1
:10094000722E97FF09C090958095709561957F4FA5
:100950008F4F9F4F689477F82AE030E0AE014F5FE9
:100960005F4F5A010E943D068A19A82E76FEC5C027
:10097000872D8E7FA61408F0BFC074FE12C172FCD2
:1009800006C1F72DFE7E7F2EB62C872D8678811529
:1009900009F4C0C001C131E083CF3115F9F0085F1F
:1009A0001F4F8FE3898388248394912CAE014F5F7E
:1009B0005F4F5A01E89477F873FC03C085149104E3
:1009C000B0F181149104D1F5511409F435CFB60179
:1009D00080E290E00E940D065A94F6CF0C5F1F4F04
:1009E000E0CFF801808189830E5F1F4FDCCFF801D3
:1009F000A190B1908F01662D70E076FC02C06FEF80
:100A00007FEFC5010E9402064C01D4CFF801A190EE
:100A1000B1908F01662D70E076FC02C06FEF7FEF22
:100A2000C5010E94F7054C01689477F8C5CFB6015F
:100A300080E290E00E940D065A94C0CFF50177FC49
:100A4000859177FE81915F01B60190E00E940D06CD
:100A500051105A94F1E08F1A9108B3CF61917191BE
:100A6000072E000C880B990B68CF372CE89434F8CC
:100A70002AE030E0953739F1572D597F352E9037E0
:100A800099F058F49835A9F09F36D9F0F60186818F
:100A900097812B96E1E10C94B8069837B9F774FC6E
:100AA00005C020E130E00FC0689434F8689432F853
:100AB000F8CF74FE03C0872D8660382E20E132E027
:100AC00002C028E030E0F80137FE11C06191719159
:100AD000819191918F01FE0131965F01AF010E94DA
:100AE0003D068A19A82E732CE89477F83FCF6191C0
:100AF000719180E090E0EECF782EBA2C74FE45CF55
:100B0000FE01EA0DF11D8081803309F043C0272DDD
:100B1000297E722E73FC0EC070FE4FC06A2CB51475
:100B200018F4650C6B18B52C852D8B195B1408F423
:100B300080E0B80EB51408F042C05B1874FE41C0E6
:100B4000B60180E390E00E940D0672FE09C088E5C0
:100B500090E071FC02C088E790E0B6010E940D06AB
:100B6000A614D8F1AA94B12C4FEFA41AB40ACE015E
:100B700001963C01A80EB91EF50182915F01B601F4
:100B800090E00E940D066A147B04B1F71DCFB62CCD
:100B9000782EB6CF72FC02C0B394BCCFB394B3949A
:100BA000B9CFB62C782EF1CEB60180E290E00E944B
:100BB0000D0633943514C0F3B7CF3B2CFBCF512C2B
:100BC000BDCF872D8678811559F280E271FC8BE2CA
:100BD00077FC8DE2B60190E0C1CFB60180E390E0F2
:100BE0000E940D066A94BCCF8FEF9FEF52CFFC019D
:100BF0000590615070400110D8F7809590958E0F48
:100C00009F1F0895FC016150704001900110D8F7BA
:100C1000809590958E0F9F1F08950F931F93CF93EC
:100C2000DF93182F092FEB018B8181FD09C01FEF86
:100C30000FEF812F902FDF91CF911F910F9108958A
:100C400082FF14C02E813F818C819D812817390736
:100C50003CF4E881F981CF01019699838883108360
:100C60008E819F8101969F838E83E3CFE885F985EE
:100C7000812F0995892BA1F3DACFFA01AA27283011
:100C800051F1203181F1E8946F936E7F6E5F7F4F59
:100C90008F4F9F4FAF4FB1E03ED0B4E03CD0670FD5
:100CA000781F891F9A1FA11D680F791F8A1F911D28
:100CB000A11D6A0F711D811D911DA11D20D009F478
:100CC00068943F912AE0269F11243019305D3193BA
:100CD000DEF6CF010895462F4770405D4193B3E0A3
:100CE0000FD0C9F7F6CF462F4F70405D4A3318F04A
:100CF000495D31FD4052419302D0A9F7EACFB4E0FB
:100D0000A6959795879577956795BA95C9F70097B2
:100D10006105710508959B01AC010A2E0694579553
:100D2000479537952795BA95C9F7620F731F841FAA
:100D3000951FA01D08952F923F924F925F926F9240
:100D40007F928F929F92AF92BF92CF92DF92EF925B
:100D5000FF920F931F93CF93DF93CDB7DEB7CA1BDC
:100D6000DB0B0FB6F894DEBF0FBECDBF09942A8807
:100D7000398848885F846E847D848C849B84AA84AF
:100D8000B984C884DF80EE80FD800C811B81AA813C
:100D9000B981CE0FD11D0FB6F894DEBF0FBECDBF07
:080DA000ED010895F894FFCF66
:100DA80024003000020079004000240012000200F4
:100DB8000040145432332E36312E30323536004C42
:100DC8006174696600506572696E746168203520C7
:060DD800616B7469660006
:00000001FF
